:020000040800F2
:10000000A0140024390300083D6700086F5C000855
:1000100065640008930500084D79000800000000A1
:1000200000000000000000000000000081690008DE
:10003000DD0D0008000000003F670008836900082C
:100040005303000853030008530300085303000838
:100050005303000853030008530300085303000828
:1000600053030008530300085303000889070008DE
:100070005303000895070008A1070008AD07000812
:10008000B9070008C507000853030008E50D00087C
:10009000F10D000853030008530300085303000840
:1000A00053030008530300085303000853030008D8
:1000B00053030008530300085303000853030008C8
:1000C00053030008530300085303000853030008B8
:1000D00053030008097900082979000835790008D8
:1000E00053030008530300080000000053030008F6
:1000F00053030008696B000853030008D107000888
:100100005303000853030008530300085303000877
:10011000FD6F00080970000853030008530300082E
:10012000DD070008E907000853030008F507000889
:100130000108000853030008530300085303000894
:1001400000000000000000000000000000000000AF
:1001500053030008530300085303000841790008C3
:100160005303000853030008530300085303000817
:100170005303000853030008530300085303000807
:1001800053030008530300085303000853030008F7
:1001900053030008530300085303000853030008E7
:1001A00053030008530300085303000853030008D7
:1001B00053030008530300085303000853030008C7
:1001C00053030008530300085303000853030008B7
:1001D00053030008530300085303000853030008A7
:1001E0005303000853030008530300085303000897
:1001F0005303000853030008530300085303000887
:100200005303000853030008530300085303000876
:100210005303000853030008530300085303000866
:1002200053030008530300085303000800000000B4
:1002300053030008530300080000000053030008A4
:100240005303000853030008530300085303000836
:100250005303000853030008530300085303000826
:100260005303000853030008530300085303000816
:100270005303000853030008530300080000000064
:100280005303000853030008530300080000000054
:10029000000000005303000800F002F800F03CF8F2
:1002A0000AA090E8000C82448344AAF10107DA45D1
:1002B00001D100F031F8AFF2090EBAE80F0013F0E7
:1002C000010F18BFFB1A43F001031847987700008D
:1002D000B8770000103A24BF78C878C1FAD852071E
:1002E00024BF30C830C144BF04680C6070470000B0
:1002F0000023002400250026103A28BF78C1FBD82F
:10030000520728BF30C148BF0B6070471FB507F0C8
:1003100056FB1FBD10B510BD00F001F91146FFF7E7
:10032000F5FF07F025FB00F01FF903B4FFF7F2FF1C
:1003300003BC00F027F9000009488047094800473E
:10034000FEE7FEE7FEE7FEE7FEE7FEE7FEE7FEE785
:10035000FEE7FEE704480549054A064B70470000E2
:10036000356A000899020008A00E0024A014002499
:10037000A0100024A010002453EA020C00F06980B1
:100380002DE9F04B4FF00006002B1FBFB3FA83F5A9
:1003900003FA05F424FA05F65E4012BF1643B2FADA
:1003A00082F502FA05F4C5F120051EBF22FA05FC0C
:1003B00044EA0C04203556EA044C4FEA144418BFB2
:1003C000641C4FF000084FF00009904271EB030CE1
:1003D00039D3002919BFB1FA81F701FA07F6B0FA4B
:1003E00080F700FA07F6C7F120071EBF20FA07FCC6
:1003F00046EA0C062037B6FBF4FCA7EB0507103FD6
:1004000007F01F0BCBF120060CFA0BFB2CFA06F6BB
:1004100044BFB3460026202FA4BF5E464FF0000B1A
:100420005BEA060C08BF4FF0010B19EB0B09ABFBA5
:10043000027C48EB0608C01B06FB02CC0BFB03CC7E
:1004400071EB0C01C1E70B46024641464846BDE848
:10045000F08B13B54FF000004FF00001AFF30080B8
:10046000BDE81C40704710B5203AC0F00B80B1E8E1
:100470001850203AA0E81850B1E81850A0E81850D9
:10048000BFF4F5AF5FEA027C24BFB1E81850A0E8E2
:10049000185044BF18C918C0BDE810405FEA827CFC
:1004A00024BF51F8043B40F8043B08BF7047D20713
:1004B00028BF31F8023B48BF11F8012B28BF20F8B4
:1004C000023B48BF00F8012B70474FF0000200B517
:1004D000134694469646203922BFA0E80C50A0E867
:1004E0000C50B1F12001BFF4F7AF090728BFA0E815
:1004F0000C5048BF0CC05DF804EB890028BF40F8E1
:10050000042B08BF704748BF20F8022B11F0804F22
:1005100018BF00F8012B7047704770477047754649
:1005200000F02CF8AE4605006946534620F007005F
:10053000854618B020B5FFF70DFFBDE820404FF00D
:1005400000064FF000074FF000084FF0000B21F0BD
:100550000701AC46ACE8C009ACE8C009ACE8C0098A
:10056000ACE8C0098D46704710B50446AFF3008073
:100570002046BDE81040FFF7D8BE00000048704795
:100580003C0E002401491820ABBEFEE72600020005
:100590007047FEE700B58DB0014630226846FFF790
:1005A00062FF03480FC806F011F80DB0002000BD2F
:1005B0001000002410B588B0044601AB00200221D1
:1005C0000090012283E807000490694605902068A6
:1005D00001F048FF20680022012101F0CBFE2068D5
:1005E00002F0BBFB08B010BD50F8042F5160C1E908
:1005F00000200160704710B58AB00C6800234FF4EA
:1006000000220493CDE90043CDE902320A1D05938F
:100610000693694607930893006801F0EFFE10B156
:1006200000200AB010BD0120FBE7000070B5214B8F
:100630000D9A98423899C2F30723A1F20125A1F23D
:100640000524D2B208D1032D01D81B480BE0032C9E
:100650002DD819480C3013E0184EB04227D1032D85
:100660000AD81548243000EB4100A0F5805080F8EE
:10067000023C80F8032C1AE0032C0AD80E483030D4
:1006800000EB4100A0F5805080F8FA3B80F8FB2B8E
:100690000DE0A1F20920022809D807483C3000EB00
:1006A0004100A0F5805080F8F23B80F8F32B002049
:1006B00070BD0000700200246C00002410030024B0
:1006C00070B5194B0D9A98423899C2F30723A1F2DD
:1006D0000524A1F20925D2B208D1032C01D8134870
:1006E0000BE0022D1ED811480C3013E0104EB04222
:1006F00018D1032C0AD80D48243000EB4100A0F596
:10070000805080F8FA3B80F8FB2B0BE0022D09D8D3
:100710000648303000EB4100A0F5805080F8F23BF5
:1007200080F8F32B002070BD7002002478000024B4
:100730001003002470B50488DDE90B128BB20D0C98
:10074000160C8671448192B259BA01816BBA43800A
:1007500052BA82800180002070BD0000074B026801
:100760009A4202D1064AD1601060064B02689A4252
:1007700003D1034A1032D1601060704700A00040DE
:100780000000002400A40040014800F04FBF00001A
:10079000F40A0024014800F049BF00006C0B00245B
:1007A000014800F043BF0000E40B0024014800F0C2
:1007B0003DBF00005C0C0024014800F037BF000082
:1007C000D40C0024014800F031BF00004C0D00247F
:1007D000014800F02BBF0000C40D0024014800F0C8
:1007E00025BF000014090024014800F01FBF0000CD
:1007F0008C090024014800F019BF0000040A0024FD
:10080000014800F013BF00007C0A0024294A016857
:1008100091423AD0274A1832914236D0254A303296
:10082000914232D0234A483291422ED0214A60323E
:1008300091422AD01F4A7832914226D01D4A9032E6
:10084000914222D01B4AA83291421ED01A4A9142AC
:100850001BD0194A1832914217D0174A30329142B0
:1008600013D0154A483291420FD0134A6032914258
:100870000BD0114A7832914207D00F4A9032914200
:1008800003D00D4AA832914211D1CAB21823103AAE
:10089000B2FBF3F26FF30901032A02F00703074AE0
:1008A000D25CC26500D9091D81650846704721F0F8
:1008B000FF01F9E71000024010040240247A00080A
:1008C00030B5224A012301689142CAB21BD01F4CA5
:1008D0001434A14217D01D4C2834A14213D01B4C14
:1008E0003C34A1420FD0194C5034A1420BD0174CCC
:1008F0006434A14207D0154C7834A14203D0134C84
:100900008C34A1420CD11421114C083AB2FBF1F104
:100910000F4A803201F01F0504EB8101AB4010E06B
:100920000C4D1824103A0D44B2FBF4F1A82D00D858
:100930000831094A01F01F0402EB8101064AA34075
:100940008032603080E80E0030BD0000085402584C
:1009500000580258F0FBFDBF0008024010B50279B4
:10096000531E072B2DD8174C0168A1421BD0154CE4
:100970001434A14217D0134C2834A14213D0114C87
:100980003C34A1420FD00F4C5034A1420BD00D4C3F
:100990006434A14207D00B4C7834A14203D0094CF7
:1009A0008C34A14203D10849074C443102E0074985
:1009B000064C443104EB8202C0E91B21012199401D
:1009C000416710BD08540258FC580258FC08024008
:1009D00010B583694FF0C074826A0146002053B19C
:1009E000B3F5005F15D072B1012A0CD0022A0AD0EB
:1009F000032A09D104E01AB1012A06D0022A03D140
:100A0000C96AC90100D5012010BDC96AA142FAD046
:100A100010BD002AF7D0012AF2D0022AF3D0032A0F
:100A2000F3D010BD2DE9F04F804E804FDFF8FC91E0
:100A30001836DFF8F8A148370468856D0AF1300AE6
:100A4000DFF8ECB14C45DFF8ECC1DFF8ECE16DD03C
:100A5000B4426BD0544569D0BC4267D0DFF8D08136
:100A6000A8F11808444561D05C455FD064455DD06D
:100A700074455BD0DFF8C481444557D0DFF8BC81B2
:100A800008F11808444551D0DFF8B08108F130086A
:100A900044454BD0DFF8A48108F14808444545D0CF
:100AA000DFF8988108F1600844453FD0DFF88C8179
:100AB00008F17808444539D0DFF8808108F19008C2
:100AC000444533D0DFF8748108F1A80844452DD09F
:100AD000DFF86C81444529D0DFF8648108F11408FF
:100AE000444523D0DFF8588108F1280844451DD03B
:100AF000DFF84C8108F13C08444517D0DFF840810D
:100B000008F15008444511D0DFF8348108F1640839
:100B100044450BD0DFF8288108F17808444505D01A
:100B2000DFF81C8108F18C08444509D1D0E9194847
:100B3000C4F80480C46E1CB1D0E91C48C4F8048019
:100B400004684C452ED0B4422CD054452AD0BC4227
:100B500028D0374E183EB44224D05C4522D064459C
:100B600020D074451ED0354EB4421BD0334E1836BB
:100B7000B44217D0314E3036B44213D02F4E4836DF
:100B8000B4420FD02D4E6036B4420BD02B4E783687
:100B9000B44207D0294E9036B44203D0274EA8362F
:100BA000B44215D190F85C603F2406F01F06B440B3
:100BB000AC600468256825F4802525602EE09A60E5
:100BC0000068C160BDE8F08F99600068C260F9E715
:100BD0001B4EB4421BD01A4E1436B44217D0184ED6
:100BE0002836B44213D0164E3C36B4420FD0144EC1
:100BF0005036B4420BD0124E6436B44207D0104E79
:100C00007836B44203D00E4E8C36B442DAD190F826
:100C10005C60012406F01F06B4406C6004686360E9
:100C20008368402B0368CFD1C9E700001000024061
:100C300088000240A0000240B800024010040240B8
:100C4000085402584FF48062428082800323C2809D
:100C5000002102818372C37202800922C181018254
:100C60004182A0F8901080F8321080F8331080F89C
:100C7000381080F8351080F8361080F83A1080F877
:100C80003B1080F837109FED070A80F8341080F889
:100C9000391080ED260A80ED270A80F8A02080F820
:100CA000A210704700000000F0B5012580F88850C0
:100CB0000B8800224FF4A566C3F30A03A3F5B674AC
:100CC000B44200D801224F788C78FF0847EA4417D5
:100CD000C7F30A07A7F5B677B74200D8521C91F8B8
:100CE00003C00F79A40944EA8C0444EA8724C4F3BE
:100CF0000A04A4F5B674B44200D8521C4C797F089B
:100D000047EAC417C7F30A07A7F5B677B74200D872
:100D1000521CB5EB941F07D00225B5EB941F03D0EE
:100D20000325B5EB941F00D1521CC4F30115012D0E
:100D300005D0022D03D06FEA1414A40700D1521C71
:100D4000062A40D14380A3F2FD334C78072B8D78DF
:100D50004FF480624FEAD40343EA4513C3F30A0514
:100D600085808B78CC780E794FEA931343EA84031D
:100D700043EA8623C3F30A04C4800B794E794FEA11
:100D8000530343EAC613C3F30A0303814E794FEAC0
:100D9000961686724E79C6F30116C672098AC1F399
:100DA0000A01018000D24280A5F2FD35072D00D254
:100DB0008280A4F2FD34072C00D2C280A3F2FD335E
:100DC000072B00D20281F0BD0A460146024800B559
:100DD000FFF76AFF002000BDCC010024704772B607
:100DE000FEE70000014801F04BBC00007002002447
:100DF000014801F045BC000010030024F0B5036871
:100E00004FF6FC716D4C426BD3F884508D4345EA2C
:100E10008205C3F88450036853F8845F068F25F475
:100E20007F0545EA06451D60836B654D9F18026886
:100E3000D2F888308B4343EA8703C2F888300268CF
:100E400052F8883F868F23F4FE0343EA064313607B
:100E5000066856F8A03FC26B8B4307EB420243EA99
:100E600082033360076857F8A03FB0F8406023F46E
:100E7000FE0343EA06433B60D0E9103603FB06223B
:100E80000368D3F8B0608E4346EA8206C3F8B060C8
:100E90000368B0F84860D3F8B07027F4FE0747EA5B
:100EA0000646C3F8B060D0E91267036806FB072264
:100EB000D3F8AC608E4346EA8206C3F8AC60D0E952
:100EC0001467036806FB0722D3F8F0608E4346EAF6
:100ED0008206C3F8F0600368B0F85860D3F8F07089
:100EE00027F47C1747EA0646C3F8F0600368876D6D
:100EF00053F8C06F02EB47028E4346EA8201196045
:100F00000168B0F85C20D1F8C03023F47C1343EAC8
:100F10000242C1F8C020016890F86020D1F8C030CA
:100F200023F07C5343EA0262C1F8C020416B04EB1A
:100F30008101C166826B01EB82020267C36B02EB27
:100F4000C3024267D0E91034634302EB8302826735
:100F5000D0E91234634302EB8302C267D0E9143450
:100F6000634302EB8302C0F88020836D02EBC3036E
:100F7000C0F88430C46D826E544303EB8403C0F820
:100F80008830046E544303EB8402C0F89020AA42D8
:100F90000AD9D0F89C20032142F02002C0F89C20FE
:100FA00080F898100120F0BD002200E004C1D0F8C4
:100FB00090308B42FAD80020F0BD000000AC004019
:100FC000FCD30040F0B58E680C69D1E9005744EAC3
:100FD0000604DFB145F080452C43866ED1E906C595
:100FE0004F695E4391F8203045EA0C05D0F884E063
:100FF0000020D1F80CC047EA0363114F1D430EEBEC
:10100000860345EA0C05E3E8024511E044EA85441D
:10101000E3E71418155CA67894F803C094F801E08F
:10102000360445EA0C6446EA0E252C43001D10C325
:10103000CC6807EB144424788442EAD8F0BD000061
:10104000C87900082DE9F84F044601F0CBFF009065
:101050003CB194F83500022806D08021616500205B
:10106000E4E00120BDE8F88FC74DC74EC6491835EA
:1010700020683036DFF81483DFF814938842DFF8F5
:1010800014A3DFF814B32ED0A8422CD0B0422AD03B
:10109000404528D0484526D0504524D0584522D038
:1010A000BD4A183290421ED0BC4A90421BD0BB4A67
:1010B0001832904217D0B94A3032904213D0B74A12
:1010C000483290420FD0B54A603290420BD0B34ABA
:1010D0007832904207D0B14A9032904203D0AF4A62
:1010E000A832904209D1026822F01E0202602068F4
:1010F000426922F08002426103E0026822F00E029F
:10110000026027688F4238464DD0A8424BD0B0428B
:1011100049D0404547D0484545D0504543D0584533
:1011200041D09D4A183290423DD09C4A90423AD0DC
:101130009A4A1832904236D0984A3032904232D091
:10114000964A483290422ED0944A603290422AD039
:10115000924A7832904226D0904A9032904222D0E1
:101160008E4AA83290421ED08D4A90421BD08C4AA3
:101170001432904217D08A4A2832904213D0884ABB
:101180003C3290420FD0864A503290420BD0844A73
:101190006432904207D0824A7832904203D0804A2B
:1011A0008C32974204D1206E026822F48072026071
:1011B00075492068884228D0A84226D0B04224D061
:1011C000404522D0484520D050451ED058451CD01F
:1011D00071491831884218D07049884215D06F493A
:1011E0001831884211D06D49303188420DD06B4999
:1011F0004831884209D069496031884205D0674941
:101200007831884201D065499031016821F00101AF
:1012100001600EE001F0E6FE0099401A052808D9A9
:10122000202262650321002084F8351084F8340000
:1012300017E73868C007EDD1534A01212068904272
:101240002ED0A8422CD0B0422AD0404528D04845C4
:1012500026D0504524D0584522D04F4B18339842C1
:101260001ED04E4B98421BD04C4B1833984217D08F
:101270004A4B3033984213D0484B483398420FD0F2
:10128000464B603398420BD0444B7833984207D09A
:10129000424B9033984203D0404BA833984208D138
:1012A00094F85C703F23A06D07F01F07BB4083607C
:1012B00007E094F85C30A06D03F01F0301FA03F31C
:1012C0004360206890424DD0A8424BD0B04249D0F4
:1012D000404547D0484545D0504543D0584541D07A
:1012E0002D4A183290423DD02C4A90423AD02B4A97
:1012F0001832904236D0294A3032904232D0274AB2
:10130000483290422ED0254A603290422AD0234A59
:101310007832904226D0214A9032904222D01F4A01
:10132000A83290421ED01E4A90421BD01C4A143252
:10133000904217D01A4A2832904213D0184A3C32B1
:1013400090420FD0164A503290420BD0144A643269
:10135000904207D0124A7832904203D0104A8C3221
:1013600090420BD1D4E919024260E06E30B10268BC
:1013700022F480720260D4E91C024260002084F8EA
:10138000351084F834006DE6100002405800024029
:101390007000024088000240A00002401004024099
:1013A000085402582DE9F05F28B190F83510022951
:1013B00004D0802141650120BDE8F09F904C904B06
:1013C0000168183C18338E4ADFF83C92A1428D4CDC
:1013D000DFF838E28E4FDFF83CB2DFF83CA28F4DE9
:1013E0008F4E31D091422FD099422DD0A1422BD097
:1013F000494529D0714527D0B94225D0DFF810C220
:101400000CF1180C61451FD0DFF808C2ACF1600C7C
:10141000614519D0DFF8FCC1ACF1480C614513D02F
:10142000DFF8F0C1ACF1300C61450DD0DFF8E4C15C
:10143000ACF1180C614507D0594505D0514503D092
:10144000A94201D0B1422CD1DFF8B4C14FF0040859
:1014500080F83580ACF1180C61451DD091421BD04D
:10146000994219D0A14217D0494515D0714513D0E2
:10147000B94211D06648183081420DD065486038B5
:10148000814209D063484838814205D061483038EC
:10149000814201D05F481838086820F001000860D8
:1014A000ABE0D1F800C02CF00E08DFF854C1C1F851
:1014B0000080ACF1180C0168614527D0914225D01D
:1014C000994223D0A14221D049451FD071451DD05A
:1014D000B9421BD0DFF838C10CF1180C614515D0AA
:1014E000DFF830C1ACF1600C61450FD0DFF824C1EA
:1014F000ACF1480C614509D0DFF818C1ACF1300CF3
:10150000614503D0DFF80CC1ACF1180CD1F800C074
:101510002CF0010CC1F800C0DFF8E4804FF0010CA2
:101520000168A8F11808414546D0914244D099423B
:1015300042D0A14240D049453ED071453CD0B9424D
:101540003AD0334A1832914236D0324A603A914208
:1015500032D0304A483A91422ED02E4A303A914207
:101560002AD02C4A183A914226D0594524D05145C8
:1015700022D0A94220D0B1421ED02A4A91421BD08B
:10158000284A1432914217D0264A2832914213D069
:10159000244A3C3291420FD0224A503291420BD021
:1015A000204A6432914207D01E4A7832914203D0D9
:1015B0001C4A8C32914218D1016E0A6822F4807262
:1015C0000A6090F85C20816D02F01F020CFA02F2B2
:1015D0004A60D0E919124A60C16E31B10A6822F43A
:1015E00080720A60D0E91C124A600022016D80F806
:1015F00035C080F8342001B188470020DCE60000C7
:10160000280002405800024070000240880002405A
:10161000A00002407004024088040240A00402407E
:10162000B804024008540258406D70472DE9FC5F31
:101630000446F74E0020DFF8D88300904FF416528E
:10164000F44808F11808A56DDFF8C493DFF8C0A3CB
:10165000016809F1300920680AF1480AB1FBF2F18A
:10166000B04201912F68D5F800C0DFF8ACB335D097
:101670004146884232D0484530D050452ED058455A
:101680002CD0E5491831884228D0E34930318842CE
:1016900024D0E1494831884220D0E04988421DD019
:1016A000DE491831884219D0DC493031884215D0E2
:1016B000DA494831884211D0DFF860E30EF1600E5C
:1016C00070450BD0D54A7832904207D0D34B903337
:1016D000984203D0D149A83188427DD194F85C204A
:1016E000082102F01F0201FA02F23A424AD0B04247
:1016F00032D0404530D048452ED050452CD05845AA
:101700002AD0C54A1832904226D0C34A303290427D
:1017100022D0C14A483290421ED0C04A90421BD0CB
:10172000BE4A1832904217D0BC4A3032904213D091
:10173000BA4A483290420FD0B84A603290420BD039
:10174000B64A7832904207D0B44A9032904203D0E1
:10175000B24AA832904203D1026802F0040202E0C9
:10176000026802F008026AB1026822F00402026014
:1017700094F85C0000F01F008140A960606D40F0AB
:101780000100606594F85C00012100F01F008140B9
:10179000394240D02068B04234D0404532D048452C
:1017A00030D050452ED058452CD09B4A183290420C
:1017B00028D0994A3032904224D0974A48329042F9
:1017C00020D0964A90421DD0944A1832904219D0A7
:1017D000924A3032904200E0AFE113D08F4A483253
:1017E00090420FD08D4A603290420BD08B4A7832B3
:1017F000904207D0894A9032904203D0874AA8325B
:1018000090427DD1406910F0800F04D0A960606DD6
:1018100040F00200606594F85C00042100F01F00B5
:10182000814039423ED02068B04232D0404530D06D
:1018300048452ED050452CD058452AD0764A1832EB
:10184000904226D0744A3032904222D0724A4832B6
:1018500090421ED0714A90421BD0704A183290427A
:1018600017D06E4A3032904213D06C4A48329042C0
:101870000FD06A4A603290420BD0684A7832904268
:1018800007D0664A9032904203D0644AA832904210
:101890004ED1006810F0020F04D0A960606D40F0D6
:1018A0000400606594F85C00102100F01F00814086
:1018B000394258D02068B04234D0404532D04845F3
:1018C00030D050452ED058452CD0534A1832904233
:1018D00028D0514A3032904224D04F4A4832904268
:1018E00020D04E4A90421DD04C4A1832904219D016
:1018F0004A4A3032904215D0484A4832904200E07D
:1019000014E00FD0454A603290420BD0434A7832FF
:10191000904207D0414A9032904203D03F4AA832C9
:10192000904207D1006800F0080006E0006872E706
:101930000068B7E7006800F00400A0B1A960206863
:101940000168490304D50068000308D5A16C07E0CD
:101950000168C90503D4016821F008010160216C08
:1019600009B12046884794F85C00202100F01F0050
:101970008140394279D02068B04232D0404530D0E1
:1019800048452ED050452CD058452AD0224A1832EE
:10199000904226D0204A3032904222D01E4A48320D
:1019A00090421ED01D4A90421BD01C4A18329042D1
:1019B00017D01A4A3032904213D0184A4832904217
:1019C0000FD0164A603290420BD0144A78329042BF
:1019D00007D0124A9032904203D0104AA832904267
:1019E00003D1006800F0100002E0006800F002007F
:1019F000B0B3A96094F835000428206801680FD0BE
:101A000049037ED5006800032BD4616C2AE00000F6
:101A100010000240C4000024700002401004024084
:101A200021F0160101602068416921F080014161C7
:101A3000206C08B9A06C20B12068016821F0080171
:101A4000016094F85C303F21012003F01F03002265
:101A50009940A96084F8350084F83420216D65E050
:101A600003E0E16B09B120468847606D00287DD016
:101A7000606DC00759D02068042184F83510B04249
:101A80002BD0404529D0484527D0504525D0584532
:101A900023D09D49884220D09B49183188421CD0D0
:101AA00099493031884218D09849884215D09749D1
:101AB0001831884211D09549303188420DD0934970
:101AC0004831884209D091496031884205D08F4918
:101AD0007831884201D08D499031016821F00101AF
:101AE000016020680099019A491C0091914202D836
:101AF0000168C907F6D10068C00710D003200FE0C5
:101B0000FFE70168C905ACD403680121002223F076
:101B10001003036084F8351084F83420A1E7012015
:101B200084F83500002084F83400E16C00291DD0D1
:101B300002B02046BDE8F05F0847754988421DD0D5
:101B400073491431884219D071492831884215D01F
:101B50006F493C31884211D06D49503188420DD0D7
:101B60006B496431884209D0694900E084E07831EA
:101B7000884203D066498C3188427DD194F85C80DC
:101B80000427016808F01F0807FA08F717EA0C0F86
:101B9000009746D04F0744D500980F04686003D5DE
:101BA000C8033CD4A16CC1E7880638D42068B04291
:101BB0002DD055496039884229D0484527D0504515
:101BC00025D0584523D05049884220D04E4918315D
:101BD00088421CD04C493031884218D04B49884249
:101BE00015D04A491831884211D0484930318842CD
:101BF0000DD046494831884209D0704507D09042FF
:101C000005D0984203D04149A831884203D10168E8
:101C100021F0080102E0016821F004010160216C5B
:101C200084E7022707FA08F717EA0C0F00974ED04F
:101C30008F074CD500980F04686003D5C80344D4BF
:101C4000616C73E7880640D42068B0422FD02E49DB
:101C5000603988422BD0484529D0504527D0584577
:101C600025D02949884222D02749183188421ED0E0
:101C700025493031884200E044E018D023498842A9
:101C800015D022491831884211D02049303188427C
:101C90000DD01E494831884209D0704507D0904286
:101CA00005D0984203D01949A831884203D1016870
:101CB00021F0140102E0016821F00A010160012114
:101CC00084F83510002084F83400E16B2EE70822F8
:101CD00002FA08F212EA0C0F14D0090712D50168B3
:101CE00021F00E01016094F85C100120002201F047
:101CF0001F0100FA01F16960606584F8350084F81D
:101D0000342012E7BDE8FC9F880002401004024026
:101D1000085402582DE9F05F044601F063F9002CE5
:101D200007467DD0E34E022120684FF00308DFF81C
:101D300088934FF00005DFF884A3B042DFF880B34A
:101D400034D0DC4A1832904230D048452ED050452D
:101D50002CD058452AD0DA4A1832904226D0D84A98
:101D60003032904222D0D64A483290421ED0D54AD4
:101D700090421BD0D34A1832904217D0D14A303209
:101D8000904213D0CF4A483290420FD0CD4A6032B1
:101D900090420BD0CB4A7832904207D0C94A903259
:101DA000904203D0C74AA83290427DD184F83510C2
:101DB000B04284F834502ED0BE49183188422AD01F
:101DC000484528D0504526D0584524D0BC49183124
:101DD000884220D0BA49303188421CD0B8494831B5
:101DE000884218D0B749884215D0B6491831884280
:101DF00011D0B449303188420DD0B24948318842BF
:101E000009D0B0496031884205D0AE497831884266
:101E100001D0AC499031016821F00101016008E076
:101E200027E100BF01F0DEF8C01B052801D9202101
:101E30001CE120680068C007F4D104F108002168A3
:101E4000D4E9053C8E4685C809681043D4E90728C3
:101E50001F43636A38439C4F40EA0C0010433940EB
:101E600040EA0800042B40EA010003D1D4E90B1238
:101E700011430843954909686FF30F01B1F1005F01
:101E80000FD36168A1F12902052A08D9163A032A5D
:101E900005D9083A012A02D94F39032901D840F45B
:101EA0008010CEF8000000E023E02068676A4069F7
:101EB000042F20F0070047EA00070DD1D4E90A01FA
:101EC000074349B12046FEF783FD28B140206065F5
:101ED000012184F83510CCE0206847612046FEF7E8
:101EE00095FC94F85C203F2102F01F029140816034
:101EF00054E0774A90421BD0754B1433984217D068
:101F0000734B2833984213D0714B3C3398420FD017
:101F10006F4B503398420BD06D4B6433984207D0CF
:101F20006B4B7833984203D0694B8C3398427DD108
:101F300084F8351084F83450664B0168A26801EAD1
:101F4000030E402A73D0802A72D00022D4E903788D
:101F5000D4E9053142EAD70242EAD8085C4AD4E91A
:101F6000077C48EAD30848EAD10141EAD701524246
:101F700041EA1C11142341EA0E010160206810445B
:101F8000B0FBF3F08000E0652046FEF73FFC94F8DC
:101F90005C20012102F01F02914041602068B042A4
:101FA00057D044491831884253D0484551D0504504
:101FB0004FD058454DD042491831884249D0404908
:101FC0003031884245D03E494831884241D03D4970
:101FD00088423ED03B49183188423AD039493031A5
:101FE000884236D037494831884232D0354960314D
:101FF00088422ED03349783188422AD031499031F5
:10200000884226D02F49A831884222D030498842C0
:102010001FD02F49143188421BD02D4928318842C6
:1020200017D02B493C31884213D002E01DE017E065
:1020300018E02749503188420BD025496431884245
:1020400007D023497831884203D021498C31884216
:1020500029D12046FEF734FCA06880280CD00CE083
:10206000102273E74FF4804270E74021616584F8E5
:1020700035800120BDE8F09F6560216E2079086001
:10208000D4E9190141606068401E072808D820463D
:10209000FEF764FCE06E0560D4E91C01416002E0DB
:1020A000E566256765670120656584F835000020D1
:1020B000E0E70000100002404000024058000240EB
:1020C00070000240100402403F8010FE0010005CCF
:1020D000085402580F00FEFF2DE9F84F04008C460B
:1020E0004FF00000009014D094F83400012812D072
:1020F00094F835500120002184F83400012D0CD0D3
:10210000C00260650120009084F834100098BDE89A
:10211000F88F0120FBE70220F9E78C4D02262068AA
:1021200084F83560A8428A4D61658A4E8A4FDFF88F
:102130002C82DFF82C92DFF82CA2DFF82CB226D00C
:10214000A84224D0B04222D0B84220D040451ED070
:1021500048451CD050451AD0584518D0834988426C
:1021600015D082491831884211D0804930318842D7
:102170000DD07E494831884209D07C49603188427F
:1021800005D07A497831884201D078499031016888
:1021900021F00101016061462046FEF743FC6B49D6
:1021A000206888422CD0A8422AD0B04228D0B84219
:1021B00026D0404524D0484522D0504520D058450F
:1021C0001ED06A4A90421BD0684A1832904217D0FB
:1021D000664A3032904213D0644A483290420FD05F
:1021E000624A603290420BD0604A7832904207D007
:1021F0005E4A9032904203D05C4AA83290420CD1A1
:10220000026822F01E0242F016020260206C88B1C1
:102210002068026842F008020BE0026822F00E0219
:1022200042F00A020260206C20B12068026842F08D
:1022300004020260206888424BD0A84249D0B042D4
:1022400047D0B84245D0404543D0484541D050459D
:102250003FD058453DD0454A90423AD0434A183283
:10226000904236D0414A3032904232D03F4A4832D2
:1022700090422ED03D4A603290422AD03B4A78327A
:10228000904226D0394A9032904222D0374AA83222
:1022900090421ED0364A90421BD0354A14329042AA
:1022A00017D0334A2832904213D0314A3C32904200
:1022B0000FD02F4A503290420BD02D4A64329042B8
:1022C00007D02B4A7832904203D0294A8C32904270
:1022D0000DD1206E0268D20303D5026842F48072E9
:1022E0000260E06E18B1026842F4807202602068F9
:1022F000884226D0A84224D0B04222D0B84220D072
:1023000040451ED048451CD050451AD0584518D0DD
:102310001649884215D015491831884211D0134901
:10232000303188420DD011494831884209D00F49D7
:102330006031884205D00D497831884201D00B497F
:102340009031016841F001010160DFE610000240B8
:102350002800024040000240580002407000024045
:1023600088000240A0000240B80002401004024071
:102370000854025810B590F89830012B09D0022B60
:1023800007D0D0F89C1041F00201C0F89C10012049
:1023900010BD03689C6D0C4203D1DC6D44F0010458
:1023A00004E09C6D31EA04041FD00324DC658B0536
:1023B00005D50368D3F8E0401443C3F8E0404B056B
:1023C00005D50368D3F8E4401443C3F8E44000683B
:1023D000084A01EA0203446D074A1C434465106839
:1023E00040EA91701060002010BDDC6D44F00204E2
:1023F000DCE70000FFFFCF3F14A8004070B50446A3
:1024000090F89800022804D0D4F89C0040F008000E
:102410000DE02068D0F8C03013F07C5F0BD0D0F80E
:10242000C4309B020CD5D4F89C0040F40070C4F872
:102430009C00012070BDD4F89C0040F02000F6E71D
:10244000D0F8C400C0F3044520462B46FEF7BAFD81
:1024500021680120A840C1F8D000C4F894000020F1
:1024600070BD704770B590F89820012A09D0022AF3
:1024700007D0D0F89C1041F00201C0F89C10012058
:1024800070BD0B68CA6883B10B69072A43EA4273BF
:1024900025D00C7A4A6942EA84724968006F00EBE1
:1024A000C100C0E90032002070BD072A0DD00C7AAF
:1024B000D6060D8A4B6943EA847246EA0543C06E2C
:1024C00049681A4340F82120EDE70B8A4FF0605528
:1024D000D1E9062442EA034245EA0423EFE78A6988
:1024E000DBE7704770470000F0B590F89840002592
:1024F000022C04D0D0F89C1041F008012BE04029B8
:102500004FF0004605D0412929D0046D8C4219D9DD
:1025100042E00468D4F8A07017F4FE0F12D0D4F88B
:10252000A4707F0613D0D4F8A470FF0105D5D4F8A9
:10253000A070B6EBD77F00D10125D4F8A470466F08
:10254000446C24E0D0F89C1041F0200103E0D0F866
:102550009C1041F48071C0F89C100120F0BD04680B
:10256000D4F8B07017F4FE0FECD0D4F8B4707F0636
:10257000EDD0D4F8B470FF0105D5D4F8B070B6EB47
:10258000D77F00D10125D4F8B470866FC46CC7F32F
:1025900005273D446C4302E0446DC66F4C4306EB97
:1025A0008404266816F080465660266836D026F0E9
:1025B00060461660D4F800C000262F4F0CF0005C77
:1025C000C2F808C0D4F800C00CF0004CC2F810C02B
:1025D000B4F804C01FFA8CFCC2F81CC0D4F804C0C4
:1025E0000CF4702CC2F80CC0D4F804C00CF4801C9D
:1025F000C2F814C0D4F804C00CF4001CC2F818C00F
:10260000D4F804C0CCF3066CC2F820C0D4F804C0DF
:1026100008344FEADC7CC2F824C008E0C6F38A46DE
:10262000C7E700BF14F806C003F806C0761CD2F84E
:102630000CC007EB1C4C9CF800C0B445F2D84029F4
:102640000AD041290CD020294FF001020CD2006899
:102650008A40C0F898200DE00068C0F8A85009E052
:102660000068C0F8B85005E0006801F01F018A401A
:10267000C0F89C200020F0BDC87900087047000019
:102680002DE9FC5FDFF804B3044600680BF1040297
:102690008246DBF80070D2F80080026D416D036D58
:1026A000466DD0F85090456DD0F850C009F0F0005C
:1026B00005EA0009DAF85450DAF8500000F0607EBC
:1026C000B80700EA88700090DAF85470DAF854809D
:1026D00002F4704003F00F02014001910CF07153BD
:1026E0005FEAC85106EA020605EA030507EA0E0793
:1026F0000DD5DAF85000C00509D500214FF48073DC
:10270000CAF85030CBF800102046FFF7B7FF20681A
:10271000416D490511D5016D49050ED5D0F8DC2074
:10272000D0F8E41000234FF48068C0F850801140C6
:10273000CBF80030204600F02FFBDFF854820098E1
:1027400050B12268830F00EA08001065CBF8003012
:1027500020460099FFF785FE019850B12268830F4B
:1027600000EA08001065CBF800302046019900F01F
:1027700015FB56B12268B30F06EA08001065CBF8C6
:1027800000303146204600F0B9FAB9F1000F0BD005
:1027900022684FEA997309EA08001065CBF8003007
:1027A0004946204600F0D8FA2068416D09050BD54E
:1027B000016D090508D500214FF400630365CBF8CE
:1027C0000010204600F0EBFA2068416D890511D514
:1027D000016D89050ED5D0F8D820D0F8E01000237F
:1027E0004FF4007CC0F850C01140CBF800302046B8
:1027F00000F0D3FA2068416D09030BD5016D090380
:1028000008D500214FF400230365CBF800102046C3
:1028100000F072FA2068416DC9030BD5016DC90340
:1028200008D500214FF480330365CBF80010204613
:1028300000F0B1FA2068416D49030BD5016D4903E1
:1028400008D500214FF480230365CBF80010204603
:1028500000F0A0FA2068416D89030ED5016D89034F
:102860000BD500214FF400330365CBF80010D4F8EA
:102870009C0040F08000C4F89C0057B12268BB0F58
:1028800007EA08001065CBF8003039462046FFF70C
:1028900029FE5DB12268AB0F05EA08001065CBF890
:1028A0000030D4F89C002843C4F89C0039492068C3
:1028B000884262D160688146806880075DD0D9F81F
:1028C0002060D9F82410D9F82080D9F82400D9F84C
:1028D0002030D9F82470D9F82020D9F82450D9F81C
:1028E00020C002F4FC4206F00F0AD9F8246015401B
:1028F00008F0300803F4C0730CF4F02C11EA0A015C
:1029000000EA080807EA030706EA0C0604D0C9F83B
:102910002010204600F03BFAB8F1000005D06168B5
:1029200008624146204600F034FA6068416A490670
:102930000CD5016A490609D5C16BC26B40230362FD
:10294000090C204602F03F0200F022FA2FB1606825
:1029500007623946204600F019FA35B16068056211
:10296000D4F89C002843C4F89C0036B16068066225
:10297000D4F89C003043C4F89C00D4F89C00002894
:1029800002D02046FFF7ADFDBDE8FC9F10A8004037
:10299000FFFFCF3F00A000402DE9F04194B08D49EA
:1029A0004C2204466846FDF75EFD64B18A4D2068FE
:1029B000A84202D100F58070606094F898004FF052
:1029C000000820B108E0012014B0BDE8F0812046E5
:1029D00084F8998000F002F92068816921F01001E3
:1029E000816100F0FFFA0327064604E000F0FAFADE
:1029F000801B0A2811D8206880690007F6D4206857
:102A0000816941F00101816100F0ECFA06460DE0B8
:102A100000F0E8FA801B0A2808D9D4F89C0040F09E
:102A20000100C4F89C0084F89870CCE720688069A5
:102A3000C007EDD02068816941F002018161207CEE
:102A400001282068816937D041F040018161607CB4
:102A500001282068816932D021F480418161A07C05
:102A60000128206881692DD041F48051816120685E
:102A7000A268816921F440711143816120688169F4
:102A800021F0A40181612068016921F01001016138
:102A9000E068012819D010B302281BD02068816992
:102AA00041F0800181612068016941F010010161FC
:102AB000E06803280ED012E021F04001C6E741F49F
:102AC0008041CBE721F48051D0E72068816941F053
:102AD000040103E02068816941F020018161207ECA
:102AE0006FF0FF02D4E90773A68A1102400602EBD9
:102AF0000727A0F10070384327685B1E184301EBDD
:102B000006463043F861A068B0F5407F11D104F16A
:102B10002800A68C6FF00F0C89C801EB0641401EFF
:102B200002EB0322104322680CEB071318430843FF
:102B3000D060206E30B12068626ED0F8C0101143B2
:102B4000C0F8C010D4E917126846D14209D02168F4
:102B5000A36E51F8C82F50F8233022F007021A4311
:102B60000A60216C49B12168626C51F8BC3F50F891
:102B7000226023F0070232430A60A16C51B1216840
:102B8000E36C51F8BC2F50F8233022F0700242EA77
:102B900003120A60216D51B12168626D51F8BC3F8A
:102BA00050F8220023F4E06242EA00200860206826
:102BB000A84204D16068816821F003018160C4F8F3
:102BC00094800121C4F89C8084F898102046FEF778
:102BD00015F9F9E6D879000800A000402DE9F04386
:102BE000B5B0804614212FA8FDF76FFCBC216846C4
:102BF000FDF76BFC3B4D4FF40041D8F80000002678
:102C0000394B4A03364F0C3D364C98424FF0020880
:102C10004FF009092ED168461B92009100F02EFD5D
:102C200008B1FEF7DCF83868401C3860012807D18D
:102C3000206840F480702060206800F48070349038
:102C4000286840F00100286028684FF4C052CDE9A0
:102C5000308600F001002F9232962FA9CDE93390F3
:102C6000224800F09DF801220221132000F054FBBD
:102C700013202FE01E4B98422ED168461B920091E4
:102C800000F0FCFC08B1FEF7AAF83868401C386078
:102C9000012807D1206840F480702060206800F48B
:102CA00080703490286840F0020028602868602214
:102CB000CDE9308600F002002F9232962FA9CDE99F
:102CC00033900C4800F06CF801221420114600F0FB
:102CD00023FB142000F012FB35B0BDE8F0830000A8
:102CE000B4000024EC44025800A000400000025848
:102CF00000A40040000402587047000030B513499A
:102D0000044600688DB00AAD88420BD140212B46A5
:102D10006A462046FFF7E8FB012803D00C48C1684B
:102D2000684688470B49206888420CD140212B46D1
:102D30006A462046FFF7D8FB012804D0044810302B
:102D4000C168684688470DB030BD000000A0004053
:102D50000000002400A40040704790F8981001295A
:102D600007D0D0F89C1041F00401C0F89C1001205D
:102D70007047022180F89810002201688B6923F0C7
:102D800001038B61C0F89C20104670477047704764
:102D9000704770477047704770477047704770477B
:102DA0002DE9F84F03247D4D00234FF001094FF02A
:102DB000B04B4FF00F0AE9E009FA03F73A4076D03A
:102DC0000E7906F00306012E01D0022E18D1D0F89C
:102DD00008C04FEA430ECE6804FA0EF82CEA080C3D
:102DE00006FA0EF646EA0C068660D0F804C00E79A4
:102DF0002CEA070CC6F300169E4046EA0C06466015
:102E00000E79F643B6070BD0C6684FEA43088F68C1
:102E100004FA08FC26EA0C0607FA08F73743C760ED
:102E20000E7906F00306022E12D1DE080F694FEA72
:102E3000437C00EB8606B646366A4FEADC6C0AFA3B
:102E40000CF807FA0CF726EA08063743CEF820708C
:102E50000F7906684FEA430807F0030704FA08FCF5
:102E600007FA08F726EA0C06374307604E6816F49F
:102E7000403F1CD04A4E376847F00207376036683B
:102E80009F0706F00206009623F0030606F1B046FF
:102E9000B6463F0FD6F80864DFF808810AFA07FC47
:102EA000404526EA0C0603D14FF0000C41E06CE0EF
:102EB000DFF8F4C0604502D14FF0010C39E0DFF8D3
:102EC000ECC0604502D14FF0020C32E0DFF8E0C008
:102ED000604502D14FF0030C2BE0DFF8D8C060450D
:102EE00002D14FF0040C24E0DFF8CCC0604502D1E1
:102EF0004FF0050C1DE0DFF8C4C0604502D14FF073
:102F0000060C16E0DFF8B8C0604502D14FF0070CA0
:102F10000FE0DFF8B0C0604502D14FF0080C08E0C8
:102F2000DFF8A4C0604502D14FF0090C01E04FF07A
:102F30000A0C0CFA07FC4CEA060CCEF808C44F68E1
:102F4000DBF80060FF0226EA020600D516435F4662
:102F5000CBF80060D1F804C0DBF804605FEA8C2C89
:102F600026EA020600D516437E606E684F6826EAA0
:102F70000206BF0300D516436E602E684F6826EA2E
:102F80000206FF0300D516432E605B1C0A6832FA66
:102F900003F67FF411AFBDE8F88F00008000005801
:102FA000F444025800000258000402580008025875
:102FB000000C025800100258001402580018025861
:102FC000001C025800200258002402580AB18161F6
:102FD00070470904FBE7000001480068000C7047D7
:102FE0000010005C0148806870470000B8000024B1
:102FF00030B590F84120202A24D190F84020012AB1
:1030000020D0012380F84030242280F84120202362
:1030100000240268156825F001051560026815682E
:1030200025F480551560026815680D431560016828
:103030000A6842F001020A6080F8413080F840409E
:10304000002030BD022030BD30B590F84120202A4C
:1030500022D190F84020012A1ED0012380F8403070
:10306000242280F84120202400250268136823F0E0
:10307000010313600268136823F4706343EA0121BB
:10308000116001680A6842F001020A6080F841405C
:1030900080F84050002030BD022030BD70B50400E3
:1030A00004D094F84100002510B106E0012070BD65
:1030B000204684F8405000F04DF8242084F8410068
:1030C0002068016821F001010160D4E9001020F0BE
:1030D000706008612068816821F400418160E068C7
:1030E00021680128A06806D040F404408860E068A8
:1030F000022803D006E040F40040F7E721684FF4CF
:103100000060486020212068114A436813434360EF
:103110002068C26822F40042C26054F8106B0DCCE3
:10312000104340EA0320F06054F81C3CD4E900024C
:103130001043186054F81C0D026842F0010202604E
:10314000656484F84110256384F84250002070BD06
:1031500000800002F0B5B5B0044614212FA8FDF799
:10316000B4F9BC216846FDF7B0F92D491226206854
:1031700004272A4D0024884225D10820209400905D
:10318000684600F07BFA08B1FDF729FE286840F098
:103190000200286028682FA9CDE9306400F0020001
:1031A00034904FF440602F901E48CDE93247FFF72E
:1031B000F7FD1A480830016841F480010160006899
:1031C00000F4800027E01849884225D1102025947A
:1031D0000090684600F052FA08B1FDF700FE28683A
:1031E00040F00800286028682FA9CDE9306400F07D
:1031F000080034904FF440502F900C48CDE93247EE
:10320000FFF7CEFD05481430016841F080010160F0
:10321000006800F08000349035B0F0BDE044025802
:103220000058004000040258001C0058000C0258CE
:10323000024881680278114481607047B800002418
:10324000032010B500F088F800F0F6FF0F4A10498F
:1032500014681368C4F3032203F00F038A5CC95C8B
:1032600002F01F0201F01F01D0400A4A20FA01F1CA
:10327000116009490860002000F010F808B1012031
:1032800010BD00F02BF8002010BD000018440258BB
:10329000547A0008C8000024C400002470B50D4D05
:1032A00004462878A0B14FF47A71B1FBF0F00A49D6
:1032B0000968B1FBF0F001F0DFFB48B9102C07D230
:1032C00000222146501E00F027F800206C6070BDDF
:1032D000012070BDB8000024C4000024064882B05C
:1032E000016841F002010160006800F002000090F6
:1032F000052002B000F030B8F4440258002809DB81
:10330000410900F01F028900012001F1E0219040F5
:10331000C1F80001704700000E4BF0B41B680D4669
:10332000C3F30223C3F10706042E00D90426191D96
:10333000072901D2002300E0DB1E012404FA06F174
:103340009C40491E2940641E994014402143F0BC12
:1033500004F0FDBA0CED00E0064900F0070210B5DC
:103360004FF6FF040868044B204040EA022018434F
:10337000086010BD0CED00E00000FA05134970B5BF
:103380000A68D243520705D5096801F00701814256
:1033900013D118E00A6822F0070202430A60FFF71F
:1033A00021FE0A4D4FF47A760446083D07E000BF3F
:1033B000FFF718FE001BB04201D9012070BD28683C
:1033C000C0438004F4D4002070BD00000C480258B3
:1033D00010B500F0EBFE05490968054AC1F302117A
:1033E000515C01F01F01C84010BD0000204402588C
:1033F000547A0008494930B5484C0B1D0A6814340A
:1034000009681D68246802F00303C5F30012C1F3C4
:103410000531C4F3CC04002914FB02F200EE102A9B
:10342000F8EE400A75D03F4A9FED3D1AB7EE000A0C
:103430006BB1DFED3D1A012B01D0022B64D002EEFF
:10344000101A1168F8EE422A81EEA22A21E0334CCC
:10345000283C23689B0612D5344B246801EE901A51
:103460001168C4F3C104F8EE612AE34001EE903A1A
:10347000C1F30801F8EE611A81EEA22A0BE001EE19
:10348000901ADFED2B2A00BFF8EE611A116882EE68
:10349000A12AC1F3080101EE901A1168F8EE611A31
:1034A00040EE811A71EE800A62EE200AC1F34621D5
:1034B00001EE101AB8EE411A31EE001AC0EE811A70
:1034C000BCEEE11A80ED001A1168C1F3064101EE6D
:1034D000101AB8EE411A31EE001AC0EE811ABCEE95
:1034E000E11A80ED011A1168C1F3066101EE101AAC
:1034F000B8EE411A31EE000A80EE801ABCEEC10A25
:1035000080ED020A30BD04E001EE901ADFED092AD9
:10351000BAE70021016041608160F3E72844025866
:1035200000000039384402580024744A0090D00347
:103530000024744C0024F44A494930B5484C0B1D12
:103540000A681C3409681D68246802F00303C5F387
:103550000022C1F30551C4F3CC04002914FB02F28C
:1035600000EE102AF8EE400A75D03F4A9FED3D1A52
:10357000B7EE000A6BB1DFED3D1A012B01D0022B33
:1035800064D002EE101A1168F8EE422A81EEA22AE7
:1035900021E0334C283C23689B0612D5344B246829
:1035A00001EE901A1168C4F3C104F8EE612AE340F9
:1035B00001EE903AC1F30801F8EE611A81EEA22AF9
:1035C0000BE001EE901ADFED2B2A00BFF8EE611A36
:1035D000116882EEA12AC1F3080101EE901A116868
:1035E000F8EE611A40EE811A71EE800A62EE200A4E
:1035F000C1F3462101EE101AB8EE411A31EE001A5D
:10360000C0EE811ABCEEE11A80ED001A1168C1F318
:10361000064101EE101AB8EE411A31EE001AC0EE62
:10362000811ABCEEE11A80ED011A1168C1F306613E
:1036300001EE101AB8EE411A31EE000A80EE801A3F
:10364000BCEEC10A80ED020A30BD04E001EE901A22
:10365000DFED092ABAE70021016041608160F3E7EC
:103660002844025800000039404402580024744A9B
:103670000090D0030024744C0024F44A2DE9FC5F30
:10368000044650F8241B002500902E460801FE4FEA
:10369000DFF8F8831DD5606E50B1B0F5801F0CD0F7
:1036A000B0F5001F0ED0B0F5401F1DD001250FE072
:1036B000386840F40030386016E00221201D03F025
:1036C0003FF803E00098022103F0CAF805000BD090
:1036D0002E462088C00523D5606D05281ED2DFE860
:1036E00000F00C11161B1B00626ED8F8001021F4BC
:1036F00040111143C8F80010EBE7386840F400307F
:10370000386009E00021201D03F01AF803E000985A
:10371000002103F0A5F805466DB100E001252E4615
:103720002088800528D5A06D80281ED00CDC90B1A3
:1037300040280ED114E0626DD8F8001021F0070186
:103740001143C8F80010EBE7C02813D0B0F5807F14
:1037500010D001250FE0386840F40030386009E0EF
:103760000021201D02F0ECFF03E00098002103F08F
:1037700077F8054695B12E462088DFF8109340056E
:1037800009F108092CD5D4F8A400B0F5800F20D099
:103790000DDCA0B1B0F5001F0FD115E0A26DD8F877
:1037A000001021F4E0711143C8F80010E4E7B0F50F
:1037B000C00F13D0B0F5000F10D001250FE038680E
:1037C00040F40030386009E00021201D02F0B8FF0D
:1037D00003E00098002103F043F8054675B12E463A
:1037E000208800052DD5D4F8A800B0F1007F21D0A5
:1037F0000EDCA8B1B0F1807F10D116E0D4F8A4207F
:10380000D9F8001021F460011143C9F80010E7E76E
:10381000B0F1407F13D0B0F1806F10D001250FE0E0
:10382000386840F40030386009E00021201D02F0C3
:1038300087FF03E00098002103F012F805466DB100
:103840002E46206880011FD5A06CD8B110280FD05B
:10385000202812D0302815D0012514E0D4F8A82053
:10386000D9F8001021F0E0611143C9F80010E8E731
:10387000386840F40030386004E00221201D02F076
:103880005FFF05466DB12E462088C0042BD5E06D44
:10389000B0F5005F20D00DDCA0B1B0F5805F0FD196
:1038A00015E07A48A26C001F016821F03001114335
:1038B0000160E9E7B0F5405F13D0B0F5804F10D05C
:1038C00001250FE0386840F40030386009E000213D
:1038D000201D02F035FF03E00098002102F0C0FF38
:1038E000054685B12E462088800429D5206EB0F586
:1038F000403F23D010DC08B3B0F5803F14D0B0F5C2
:10390000003F0FD115E0E26DD8F8001021F4E0413E
:103910001143C8F80010E6E7B0F5802F0ED0B0F5DF
:10392000A02F0BD001250AE00121201D02F008FF85
:1039300003E00098012102F093FF05468DB12E4669
:10394000208840042AD5D4F8AC00B0F1405F23D0E1
:1039500010DC08B3B0F1805F14D0B0F1005F0FD17C
:1039600015E0226ED8F8001021F4E0211143C8F8C8
:103970000010E5E7B0F1804F0ED0B0F1A04F0BD0B2
:1039800001250AE00121201D02F0DAFE03E0009883
:10399000012102F065FF05466DB12E462088000426
:1039A0001FD5E06ED8B1B0F1805F0ED0B0F1005FEE
:1039B00010D0012514E0D4F8AC20D9F8001021F083
:1039C000E0411143C9F80010E8E7386840F40030DE
:1039D000386004E00121201D02F0B2FE05466DB101
:1039E0002E462068C0011ED5606CD0B101280ED0D3
:1039F000022811D0032814D0012513E0E26ED8F874
:103A0000001021F040511143C8F80010E9E7386870
:103A100040F40030386004E00221201D02F090FEE6
:103A2000054685B12E462068DFF85CB04002ABF158
:103A30001C0B57D51648016841F480710160FFF7EF
:103A4000D1FA82460EE01148626C001F016821F035
:103A5000030111430160E6E7FFF7C4FAA0EB0A0097
:103A600064283DD80A480068C005F5D57DBBDFF85D
:103A70001CA0B4F8B0200AF1200ADAF8001002F411
:103A8000407001F4407105E02C4402585044025843
:103A900000480258814211D0DAF80010DAF800200C
:103AA00021F4407142F48032CAF80020DAF8002094
:103AB00022F48032CAF80020CAF80010D4F8B0000E
:103AC000B0F5807F21D1FFF78DFA019019E008E071
:103AD000FFF788FA0199411A41F28830814210D9E2
:103AE00003252E462078DFF844A4C0073DD0A06F00
:103AF000182838D026DC80B3082829D0102825D1F2
:103B00002CE0DAF800008007E2D5D4F8B010C1F359
:103B10000120032858460DD0016821F47C51016032
:103B2000B4F8B020DAF80010C2F30B021143CAF85F
:103B30000010D7E7FE4A036802EA111223F47C5111
:103B40001143ECE720280ED028280CD001250BE0EB
:103B50000121201D02F0F4FD04E004E000980121A1
:103B600002F07EFE05465DB12E46207880071ED508
:103B7000606F062819D2DFE800F0160C1116161631
:103B8000A26FDAF8001021F038011143CAF80010D2
:103B9000EBE70121201D02F0D3FD03E00098012195
:103BA00002F05EFE054675B100E001252E46207844
:103BB00040071FD5D4F89000062819D2DFE800F09E
:103BC000160C11161616626FDAF8001021F00701B4
:103BD0001143CAF80010EAE70121201D02F0B0FDF0
:103BE00003E00098012102F03BFE05469DB100E094
:103BF00001252E46207880062BD5D4F88C00B0F114
:103C0000405F24D011DC10B3B0F1805F15D0B0F16B
:103C1000005F10D116E0D4F89020D9F8001021F000
:103C200007011143C9F80010E4E7B0F1804F0ED04E
:103C3000B0F1A04F0BD001250AE00021201D02F0B9
:103C40007FFD03E00098022102F00AFE05468DB1D7
:103C50002E46207840062BD5D4F89800B0F5406F5A
:103C600024D011DC10B3B0F5806F15D0B0F5006F23
:103C700010D116E0D4F88C20DAF8001021F0E041E1
:103C80001143CAF80010E4E7B0F5805F0ED0B0F53C
:103C9000A05F0BD001250AE00021201D02F050FD9D
:103CA00003E00098022102F0DBFD05468DB12E46AF
:103CB000207800062BD5D4F89C00B0F5C04F24D056
:103CC00011DC10B3B0F5005F15D0B0F5804F10D106
:103CD00016E0D4F89820D9F8001021F4E0511143EF
:103CE000C9F80010E4E7B0F5004F0ED0B0F5204F52
:103CF0000BD001250AE00021201D02F021FD03E088
:103D00000098022102F0ACFD05464DB12E46207808
:103D100000071ED5D4F88000B0F5805F0AD00FE010
:103D2000D4F89C20D9F8001021F460411143C9F85F
:103D30000010ECE70098022102F092FD00B101268C
:103D4000D4F88020DAF8001021F440511143CAF869
:103D500000102078C00613D5D4F89400B0F5807F09
:103D600005D10098022102F07BFD00B10126D4F8B4
:103D70009420D9F8001021F440711143C9F80010C3
:103D80002068000316D5D4F8A00038B1B0F5803F04
:103D900009D0B0F5003F0BD001250AE00021201D1D
:103DA00002F0CEFC03E00098022102F059FD054626
:103DB00085B12E462068400322D5D4F88400B0F5A2
:103DC000801F11D0B0F5001F13D0B0F5401F15D0E3
:103DD000012514E0D4F8A020D9F8001021F44031D6
:103DE0001143C9F80010E5E7386840F40030386046
:103DF00004E00098012102F033FD054655B12E463E
:103E00002068C0031CD5E06C70B1B0F5803F10D0C5
:103E1000012514E0D4F88420DAF8001021F44011D0
:103E20001143CAF80010EBE7386840F400303860FE
:103E300004E00221201D02F083FC0546CDB12E4690
:103E40002068800005D50098022102F009FD00B12C
:103E50000126206880031BD5E06FB8B1B0F5807FE4
:103E600010D0B0F5007F11D0B0F5407F0ED0012505
:103E70000DE02E48E26C0838016821F480311143CE
:103E80000160DDE7386840F400303860F5B32E4655
:103E90002068C00207D5226FD8F8001021F0004139
:103EA0001143C8F800102068C00008D5D4F8B42029
:103EB000DBF8001021F480411143CBF8001020689A
:103EC000800207D5A26ED8F8001021F0807111434E
:103ED000C8F80010206840000CD5DBF8001021F471
:103EE0000041CBF80010DBF80010D4F8B8201143E3
:103EF000CBF800102068002807DA0C48226D08383B
:103F0000016821F040511143016000E014E0206895
:103F1000000208D5D4F88820DAF8001021F4400116
:103F20001143CAF8001086B1012003E0544402583E
:103F3000CFFFFF00BDE8FC9FE26FDAF8001021F42C
:103F400040711143CAF80010A2E70020EDE700001D
:103F50002DE9F05F04000F467ED0DFF83882D8F8F4
:103F6000000000F00F00B8420CD2D8F8001021F089
:103F70000F013943C8F80010D8F8000000F00F0016
:103F8000B84269D12078844D40070AD52069296854
:103F900001F07001884204D9296821F070010143C1
:103FA000296020787C4E361D00070AD5606931688B
:103FB00001F07001884204D9316821F07001014399
:103FC00031602078C0060AD5A069316801F4E0614B
:103FD000884204D9316821F4E061014331602078DE
:103FE000DFF8B4B180060BF1080B0CD5E169584637
:103FF000DBF8002002F07002914204D9026822F03E
:1040000070020A430260207880070AD5E0682968B8
:1040100001F00F01884204D9296821F00F01014302
:1040200029602078C0073ED05B49A268286818390B
:1040300020F47060104328606068022818D00328BC
:1040400019D00968012819D0490700294ADADFF890
:1040500048A1AAF1080A00E044E0DAF8002022F0C2
:1040600007020243CAF80020FEF7BCFF814612E0B7
:1040700009688903E9E709688901E6E7C905E4E712
:10408000FEF7B0FFA0EB090141F28830814202D96E
:104090000320BDE8F09F6168DAF8000000F0380006
:1040A000B0EBC10FECD1207880070AD5E068296811
:1040B00001F00F01884204D2296821F00F01014369
:1040C0002960D8F80010404601F00F01B9420BD921
:1040D000016821F00F0139430160006800F00F0012
:1040E000B84201D00120D4E7207840070AD52069E2
:1040F000296801F07001884204D2296821F070011A
:1041000001432960207800070AD56069316801F011
:104110007001884204D2316821F07001014331609E
:104120002078C0060AD5A069316801F4E0618842B0
:1041300004D2316821F4E0610143316020788006C7
:104140000CD5E1695846DBF8002002F0700291427C
:1041500004D2026822F070020A43026000F06CF898
:104160000E492A682B68C2F3032203F00F038A5C0E
:10417000C95C02F01F0201F01F01D040084A20FA7A
:1041800001F111600749086007480068BDE8F05F69
:10419000FFF784B80020005218440258547A0008EF
:1041A000C8000024C4000024BC00002430B500F086
:1041B00043F80B4A0B490C4B15681468C5F30322EE
:1041C00004F00F048A5C095D02F01F0201F01F0178
:1041D000D040064A20FA01F119601060084630BD4F
:1041E00018440258547A0008C8000024C40000246F
:1041F00000B5FFF7DBFF05490968054AC1F3021165
:10420000515C01F01F01C84000BD00001C44025871
:10421000547A000800B5FFF7C9FF05490968054A47
:10422000C1F30221515C01F01F01C84000BD000034
:104230001C440258547A0008454970B5454809683D
:10424000434B103B11F0380208D00111082A03D06B
:10425000102A0BD0182A0BD0084670BD19688906A1
:10426000FBD51968C1F3C101C84070BD3A4870BDA3
:104270003749374D18310C1D24350A6809682668FE
:104280002D6802F0030406F00102C1F30511C5F325
:10429000CC0515FB02F200EE102AB8EE400AE9B395
:1042A0002F4ADFED2E0AB7EE001A6CB1DFED2D1AA2
:1042B000012C01D0022C43D002EE101A1068F8EE47
:1042C000422A81EEA22A1EE01C68A40611D51B68B2
:1042D00001EE901A1168C3F3C103F8EE612AD840C9
:1042E00001EE900AC1F30800F8EE611A81EEA22AED
:1042F0000BE001EE901ADFED1C2A00BFF8EE611A08
:10430000106882EEA12AC0F3080001EE900AF8EED0
:10431000611A40EE201A31EE810A00E015E022EE2B
:10432000000A1068C0F34620401C00EE900AF8EE28
:10433000600A80EE201ABCEEC10A10EE100A70BDB1
:1043400001EE901ADFED092AD8E7002070BD0000C9
:10435000104402580090D00300127A000000003987
:10436000304402580024744A0024744C0024F44A57
:104370002DE9F05F04007DD0FF4F2078FE4D183707
:10438000DFF8F493103DC00748D0D9F80000396831
:1043900000F03800102815D0182803D101F00300D0
:1043A00002280FD06068B0F5803F12D010B1B0F590
:1043B000A02F18D0286820F480302860286820F4C6
:1043C000802009E02868800328D560680028D2D0C2
:1043D00024E0286840F480302860606888B1FEF7E7
:1043E00001FE064609E0286840F480202860F0E7D6
:1043F000FEF7F8FD801B64286FD828688003F7D586
:104400000CE0FEF7EFFD064605E000BFFEF7EAFD13
:10441000801B6428F0D828688003F7D4207841F204
:104420000308D54E0C3E800769D5D9F800003968DD
:1044300010F038000ED0182801D188070AD0E068A3
:1044400090B3296821F0190101432960FEF7CAFDE4
:10445000824631E02868400702D5E06800288AD00B
:10446000E168286820F0190008432860FEF7BAFDCB
:10447000824607E0DFE000BFFEF7B4FDA0EB0A00D4
:104480000228B9D828684007F6D500BFFEF7A4FD7A
:1044900040451BD82069402812D0316821F47C3176
:1044A00041EA003030602AE018E000BFFEF79AFDD4
:1044B000A0EB0A0002289FD828684007F6D5E5E758
:1044C000306820F47C3040F40030EBE7207C316829
:1044D00021F0FE4141EA0060E4E70DE1286820F0A8
:1044E00001002860FEF77EFD824605E0FEF77AFDBA
:1044F000A0EB0A0002288DD828684007F6D420785F
:10450000C0065DD5D9F80000DFF86CB2396800F05C
:104510003800ABF1040B082810D0182803D101F0A3
:10452000030001280AD0E0690028286838D040F04C
:1045300080002860FEF756FD824623E02868C0050B
:1045400023D5E069802876D11FE0206A202821D079
:10455000316821F0F84141EA8060306030E000BF0E
:1045600094F82010DBF8002022F07C5242EA01612E
:10457000CBF8001024E000BFFEF734FDA0EB0A00EA
:10458000022898D82868C005F6D5FEF725FD4045D5
:10459000E6D8DAE7306820F0F84040F08040DCE709
:1045A00020F080002860FEF71DFD064605E000BFF4
:1045B000FEF718FD801B02289DD82868C005F7D497
:1045C0002078000729D56C4861696430002980464D
:1045D000016811D041F001010160FEF703FD0646BC
:1045E00005E000BFFEF7FEFC801B0228C9D8D8F802
:1045F00000008007F6D510E021F001010160FEF710
:10460000F1FC064605E000BFFEF7ECFC801B02282B
:1046100072D8D8F800008007F6D42078800623D519
:10462000A0690028286810D040F480502860FEF768
:10463000D9FC064605E02CE1FEF7D4FC801B0228DD
:104640005AD828688004F7D50EE020F480502860FE
:10465000FEF7C8FC064604E0FEF7C4FC801B0228F7
:104660004AD828688004F7D4207840074FD5DFF86F
:104670000C81D8F8001041F48071C8F80010FEF7E2
:10468000B1FC064605E000BFFEF7ACFC801B6428C9
:1046900032D8D8F80000C005F6D5374EA06860368D
:1046A00001280AD008B1052813D0306820F0010095
:1046B0003060306820F0040002E0306840F0010013
:1046C0003060A06841F2883A90B1FEF78BFC8046DA
:1046D0000AE0306840F004003060EEE7FEF782FC4C
:1046E000A0EB0801514507D830688007F6D50EE0E9
:1046F000FEF778FC804607E084E000BFFEF772FC1E
:10470000A0EB080151457DD830688007F6D4606A77
:10471000B0B3DFF86480D9F8001008F12008C1F3C5
:10472000C20103296FD00228286820F08070286019
:1047300003D0FEF757FC044680E0FEF753FC064624
:1047400005E000BFFEF74EFC801B022873D82868E6
:104750008001F7D4E26A40F2F331386854F8283F18
:10476000884340EA021018433860217B4FF4FE0C66
:1047700022894FF0FE4704E01044025800480258D6
:1047800089E0208A4902521E267DA1F5007189B276
:10479000401EC2F308021143761E0CEA004001439A
:1047A0003E4807EA066211433C4AC8F80010083246
:1047B000016821F00101016011684FF6F876236A63
:1047C000B14341EAC30111600168A26921F00C0103
:1047D000114301600168E26921F0020111430160A7
:1047E000016841F480310160016841F400310160E9
:1047F000016841F480210160016841F0010101601C
:10480000286801E017E01DE040F080702860FEF7A6
:10481000E9FB044605E000BFFEF7E4FB001B0228AD
:1048200009D828688001F7D535E000BFFEF7DAFB2C
:10483000001B022802D90320BDE8F09F28688001F0
:10484000F4D428E039680128D8F8000021D0A26A01
:1048500001F0030393421CD1E26AC1F305118A42BD
:1048600017D1216BC0F30802491E8A4211D1616B36
:10487000C0F34622491E91420BD1A16BC0F3064200
:10488000491E914205D1E16BC0F30660491E814289
:1048900001D00120D0E70020CEE700002C440258D0
:1048A0002DE9F047040029D0504A4FF00009206854
:1048B0004F4B504D9042C4F8289006D0984204D0F7
:1048C000A84202D0E1680F2918D8E1684FF0010A28
:1048D000E76B0831C9080AEB57167143904205D0BF
:1048E000984203D0A84201D0082907D8904203D0AB
:1048F000984201D0A84204D1102902D90120BDE874
:10490000F08794F8810020B9204684F8809000F068
:1049100073F8022084F881002068016821F0010109
:1049200001602168A0698A68B0F1806F02F4F81014
:1049300010D16268B2F5800F01D01AB10AE0A26B03
:1049400022B107E0A26BB2F1805F03D10A6842F4A2
:1049500080520A60A66AE169E26B25683143E36828
:10496000024311431943A960D4E90D02D4E905714A
:10497000636A25691843D4F820C00A4326681043A7
:104980002843A56D3843D4E90182D4E9123140EAC5
:104990000C0040EA08000843104318432843F06025
:1049A000606868B92068816821F4C05141F40061F1
:1049B00081602068816821F4C06141F48061816078
:1049C0002068016D21F0010101656068400206D593
:1049D0002068626DC16821F000411143C160C4F8D4
:1049E000849084F881A0002089E700000030014015
:1049F00000380040003C004010B5B6B00446142119
:104A00002FA8FBF762FDBC216846FBF75EFD174946
:104A10002068884228D180140090002468461794AA
:104A2000FEF72CFE08B1FCF7DAF91148016841F4F1
:104A300080510160006800F4805034900C481038B8
:104A4000016841F00101016000682FAB022100F014
:104A500001003490E020052283E8130005482FA9C7
:104A6000CDE93242FEF79CF936B010BD003001406E
:104A7000F044025800000258401EB0F1807F10B58B
:104A800001D3012010BD4FF0E02460610F216017B9
:104A900002F05DFF0020A0610721216110BD704779
:104AA00070477047F0B590F83C20012A3BD01F4E6C
:104AB000012480F83C40022280F83D2002681C4D11
:104AC0005368B242D2F808C001D0AA4203D14F685D
:104AD00023F470033B430F6823F070031F435760B8
:104AE0000268B24213D0B2F1804F10D0114B9A42FB
:104AF0000DD0114B9A420AD0104B9A4207D0AA42CD
:104B000005D00F4B9A4202D00E4B9A4204D18968CD
:104B10002CF0800319439160002180F83D4080F81B
:104B20003C100846F0BD0220F0BD0000000001402E
:104B3000000401400004004000080040000C004058
:104B4000001800400040014010B5040003D094F864
:104B50003D0010B107E0012010BD002084F83C00AA
:104B6000204600F023F8022084F83D002068211D33
:104B700002F000F8012084F8480084F83E0084F830
:104B80003F0084F8400084F8410084F8420084F833
:104B9000430084F8440084F8450084F8460084F813
:104BA000470084F83D00002010BD000008B5114A00
:104BB00001681148914208D1016841F00401016087
:104BC000006800F00400009008BD0C4A9142FBD13F
:104BD000016841F48071016000680122032100F442
:104BE000807000902D20FEF797FBBDE808402D2037
:104BF000FEF784BB00080040E84402580020004053
:104C000090F83D10012901D001207047174A022178
:104C100080F83D100168CB6843F00103CB60006869
:104C2000904214D0B0F1804F11D0114988420ED07B
:104C3000104988420BD01049884208D00F49884259
:104C400005D00F49884202D00E49884207D18168B9
:104C50000D4A1140062906D0B1F5803F03D0016806
:104C600041F0010101600020704700000000014098
:104C70000004004000080040000C00400004014017
:104C800000180040004001400700010070B50446D4
:104C900090F83C000025012814D03A4B012684F8F6
:104CA0003C60022084F83D0022689068184020F49F
:104CB0007F409060086870282FD010DC10F00F0F34
:104CC00003D022E04FF0020070BD4FEA2012072A05
:104CD0001BD2DFE802F0535353534B394100B0F17C
:104CE000101F4BD009DCB0F5805F0FD0B0F5005F2E
:104CF0001ED0B0F5801F08D140E0A0F5801120390A
:104D00003CD010293AD0202938D0012584F83D60C4
:104D1000002084F83C00284670BD4A682068D1E92C
:104D2000021301F089FF2068816841F0770109E0F2
:104D30004A682068D1E9021301F07EFF206881688B
:104D400041F480418160E1E7CA684968206802F067
:104D500026F92068502106E0CA684968206802F0F8
:104D60002FF92068602101F071FFCFE7CA68496818
:104D7000206802F014F920684021F4E72268014617
:104D80001046F0E788FFCEFF704770B50446006814
:104D900000250169C943890715D4C168C94389073A
:104DA00011D4EA1E02610121217720688069800701
:104DB000204602D0FFF7E8FF04E000F0CFF82046DD
:104DC00000F0A4F9257720680169C943490717D481
:104DD000C168C943490713D402216FF0040202617C
:104DE00021772068806910F4407F204602D0FFF7C9
:104DF000CBFF04E000F0B2F8204600F087F92577F9
:104E000020680169C943090716D4C168C943090765
:104E100012D404216FF00802026121772068C06972
:104E20008007204602D0FFF7AFFF04E000F096F8BD
:104E3000204600F06BF9257720680169C943C9064F
:104E400017D4C168C943C90613D408216FF01002F2
:104E5000026121772068C06910F4407F204602D0AB
:104E6000FFF792FF04E000F079F8204600F04EF9D9
:104E7000257720680169C943C90708D1C168C943BA
:104E8000C90704D1891E0161204600F041F920685C
:104E90000169C943090609D4C168C943090605D493
:104EA0006FF0800101612046FFF7FAFD206801697B
:104EB000C943C90509D4C168C943090605D46FF4BB
:104EC000807101612046FFF7EAFD20680169C9434E
:104ED000490609D4C168C943490605D46FF04001A9
:104EE0000161204600F020F920680169C943890664
:104EF0000BD4C168C943890607D46FF02001016152
:104F00002046BDE87040FFF7CCBD70BD10B586B03F
:104F1000044614216846FBF7D8FA0D4920688842F8
:104F200014D10C48016841F00401016000680021BF
:104F300000F004000590022002020092CDE9010178
:104F4000CDE9031004486946FDF72AFF06B010BDFD
:104F500000040040E044025800080258704770B551
:104F6000044690F83C0000260D4601280BD0012095
:104F700084F83C000C2A4AD007DC82B1042A20D0F5
:104F8000082A06D131E0022070BD102A53D0142A1D
:104F900063D00126002084F83C00304670BD2068B4
:104FA00001F05EFE2068816941F00801816120689E
:104FB000816921F00401816120682A6981691143B6
:104FC00011E0206801F0A0FE2068816941F40061D1
:104FD00081612068816921F480618161206829698B
:104FE000826942EA01218161D4E7206801F0D8FE9C
:104FF0002068C16941F00801C1612068C16921F0E0
:105000000401C16120682A69C169114311E0206867
:1050100001F012FF2068C16941F40061C16120689C
:10502000C16921F48061C16120682969C26942EACD
:105030000121C161AEE7206801F03AFF2068416DAF
:1050400041F0080141652068416D21F0040141658E
:1050500020682A69416D114311E0206801F062FF68
:105060002068416D41F4006141652068416D21F483
:105070008061416520682969426D42EA01214165EC
:1050800088E710B5040003D094F83D0010B107E0A4
:10509000012010BD002084F83C00204600F022F8DA
:1050A000022084F83D002068211D01F063FD0120ED
:1050B00084F8480084F83E0084F83F0084F84000FB
:1050C00084F8410084F8420084F8430084F84400E6
:1050D00084F8450084F8460084F8470084F83D00D1
:1050E000002010BD08B500680649884208D106486E
:1050F000016841F002010160006800F002000090C8
:1051000008BD000000040040E84402587047000059
:105110000349884202D10348806800477047000075
:1051200068050024CC000024704730B590F880104A
:10513000012918D0012280F880202421C0F8841091
:105140000022202450F8641B0B680D6823F00053E4
:1051500025F001050D60026050F8641C0B600462CC
:105160000277104630BD022030BD7047704770B5E1
:10517000044690F8800001281DD0012284F8802088
:105180002420C4F8840020680568026822F0010227
:1051900002602068826822F060620A4382602046D2
:1051A00001F038FF2268202100201560C4F8841027
:1051B00084F8800070BD022070BD70B5044690F880
:1051C000800001281DD0012284F880202420C4F80A
:1051D000840020680568026822F0010202602068ED
:1051E000826822F060420A438260204601F012FF8A
:1051F0002268202100201560C4F8841084F8800003
:1052000070BD022070BD7047704790F88010012972
:1052100007D0D0F88420012180F88010212A02D004
:105220000BE0022070470168083151E8002F42F07E
:10523000800241E80023002BF5D1D0F88810222904
:1052400021D1026808211162016941B1026852E866
:10525000001F41F4807142E80013002BF6D1016871
:10526000083151E8002F42F0010241E80023002BF1
:10527000F5D10168083151E8002F42F0400241E8C1
:105280000023002BF5D1002180F8801008467047DC
:1052900070B501680446D0F884001025D4F8886001
:1052A0008968090618D5212816D12068083050E8E9
:1052B000001F21F0800140E80012002AF5D1A06F04
:1052C00038B1FBF7BFFE20B1A06FFCF7ADF9202885
:1052D00021D0204602F004F820688068400618D5E6
:1052E000222E16D12068083050E8001F21F040011E
:1052F00040E80012002AF5D1E06F38B1FBF7A2FEBA
:1053000020B1E06FFCF790F9202804D0204601F08E
:10531000BDFF002070BDC4F88C50032070BD7047E5
:105320002DE9F04103680446002540F60F06D869D0
:1053300019689A68304209D186067DD501F02006A9
:1053400002F080573E4377D0216F62E1C64EC74FCF
:1053500016400F4037436FD0C70709D0CF0507D598
:1053600001271F62D4F88C3043F00103C4F88C305D
:1053700083070AD5D30708D0276802233B62D4F8F5
:105380008C3043F00403C4F88C3043070AD5D307AC
:1053900008D0276804233B62D4F88C3043F0020322
:1053A000C4F88C3003070CD501F02003334308D038
:1053B000266808233362D4F88C3043F00803C4F81D
:1053C0008C3003050BD54B0109D526684FF40063DB
:1053D0003362D4F88C3043F02003C4F88C30D4F816
:1053E0008C30002B3AD0800609D501F0200002F065
:1053F0008051084303D0216F09B1204688472168B6
:10540000D4F88C008968490602D410F0280F27D000
:10541000204601F03BFF2068806840061BD52068CD
:10542000083050E8001F21F0400140E80012002A37
:10543000F5D1E06F78B100E018E08D490165E06FCB
:10544000FBF7B0FF002809D0E06F016D00E02046B7
:10545000BDE8F04108472046FFF761FFBDE8F08155
:105460002046FFF75CFFC4F88C50F7E7E76E202674
:10547000012F7CD1C7067AD5CF0678D510201862C7
:105480002068806840067DD5E16F7A4A08689042BE
:1054900034D0784A1832904230D0764A3032904236
:1054A0002CD0744A4832904228D0724A60329042DE
:1054B00024D0704A7832904220D06E4A9032904286
:1054C0001CD06C4AA832904218D06B4A904215D03A
:1054D000694A1832904211D0674A303290420DD05A
:1054E000654A4832904209D0634A6032904205D002
:1054F000614A7832904201D05F4A9032406800049D
:10550000000CABD0B4F85C208242A7D9A4F85E00AE
:10551000C869B0F5807F2ED0216851E8000F20F4D3
:10552000807041E80002002AF6D12068083050E877
:10553000001F21F0010140E80012002AF5D1206887
:10554000083050E8001F21F0400140E80012002A16
:10555000F5D1C4F88860E566216851E8000F20F0B5
:10556000100041E80002002AF6D1E06F01E03BE0C4
:1055700008E0FBF767FDB4F85C00B4F85E10401A71
:1055800081B22DE0B4F85C00B4F85E10B4F85E208F
:10559000401A81B2002AB4D00029B2D0226852E861
:1055A000000F20F4907042E80003002BF6D1334B3B
:1055B000226802F1080252E8000F00EA030042E804
:1055C0000007002FF4D1C4F88860E56625672268DB
:1055D00052E8000F20F0100042E80003002BF6D143
:1055E0002046FFF7C2FD39E7C70209D5570207D5A4
:1055F0004FF4801018622046BDE8F041FFF704BE6A
:1056000003060AD501F0800302F40002134304D01C
:10561000616F00297FF41BAF20E7420611D54A06CF
:105620000FD52046026852E8001F21F0400142E8F1
:105630000013002BF6D1C0F88460456700F016FB1C
:105640000CE7020206D54A0004D52046BDE8F04129
:10565000FFF7D9BDC001C6D50029C4DA2046BDE890
:10566000F041FFF783BD000001000010200100049D
:10567000817100081000024010040240FEFFFFEF9D
:1056800010B5040003D0D4F8840010B107E0012065
:1056900010BD002084F88000204600F027F8242068
:1056A000C4F884002068016821F0010101602046EF
:1056B00001F05CFE0128EBD0A06A10B1204601F099
:1056C000CBFC2068416821F49041416020688168EA
:1056D00021F02A0181602068016841F00101016028
:1056E0002046BDE8104001F01BBD00002DE9F04F41
:1056F000B5B0044614212FA8FAF7E7FEBC2168468E
:10570000FAF7E3FEFE490227DFF8F0830025206860
:105710004FF48079DFF8E4B30E1588424FF0400A69
:10572000A8F108085FD1684600971D95FDF7A6FF10
:1057300008B1FBF754FBDBF8001041F40021CBF873
:105740000010DBF8000000F400203490D8F80000CE
:1057500040F00100C8F80000D8F80000032108223A
:105760002F9100F001003295CDE930752FA9CDE9D8
:105770003320E448FDF714FBE34F3F22E34938466A
:1057800087E82600C7E903567D61C7E906593D62EF
:105790007D62FCF7BFFA08B1FBF721FBDFF86883F5
:1057A0005046DA4A08F17808E7674146BC63183288
:1057B000E1E8022A81E86100CD6040460D614D615B
:1057C0008D61C8F82450FCF7A5FA08B1FBF707FB78
:1057D0000022C4F8788034201146C8F83840FDF71C
:1057E0009BFD342065E0CA49884267D1684600972E
:1057F0001D95FDF743FF08B1FBF7F1FADBF8001048
:1058000041F48011CBF80010DBF8000000F48010A8
:105810003490D8F8000040F00200C8F80000D8F832
:1058200000000E22CDE9307500F0020032954FF4F1
:1058300040512F912FA9CDE93320B648FDF7B0FA9A
:10584000B14F4122B149F0374831384687E8260048
:10585000C7E903567D61C7E906593D627D62FCF7E1
:1058600059FA08B1FBF7BBFADFF8AC824223E767CD
:105870004046BC63A54AC0E90356C8F814506032DC
:10588000C8F81850C8F81C50C8F8205088E80C0414
:10589000C8F82450FCF73EFA08B1FBF7A0FA002242
:1058A000C4F8788035201146C8F83840FDF734FD3B
:1058B0003520FDF723FD35B0BDE8F08F97498842CC
:1058C0004AD14FF0010ACDF800A068461E95FDF7B9
:1058D000D5FE08B1FBF783FA88480830016841F02B
:1058E00010010160006800F010003490D8F800004A
:1058F00040F00100C8F80000D8F8000007212FABE5
:10590000329500F001004FF4C062CDE9331083E816
:1059100084047C482FA9FDF743FA7F4F2921804852
:10592000783738604FF40030C7E90115C7E90356EE
:105930007D61C7E90659C7E908053846FCF7EAF969
:1059400008B1FBF74CFAE76700220121BC63252070
:10595000FDF7E2FC2520ACE77249884262D1684637
:1059600000971D95FDF78AFE08B1FBF738FADBF8C2
:10597000001041F40031CBF80010DBF8000000F417
:1059800000303490D8F8000040F00100C8F8000062
:10599000D8F800000C2207212F9200F00100329568
:1059A000CDE93075CDE9331056482FA9FDF7F8F948
:1059B000594F2B225A49F0373031384687E82600B4
:1059C000C7E903567D61C7E906593D627D62FCF770
:1059D000A1F908B1FBF703FADFF84C812C23E76744
:1059E0004046BC634E4AC0E90356C8F814504832DA
:1059F000C8F81850C8F81C50C8F8205088E80C04A3
:105A0000C8F82450FCF786F908B1FBF7E8F9C4F8A8
:105A1000788001220021C8F838402620FDF77CFC60
:105A2000262046E74149884266D1684600971D9581
:105A3000FDF724FE08B1FBF7D2F9DBF8001041F4C2
:105A40008021CBF80010DBF8000000F480203490B7
:105A5000D8F8000040F00800C8F80000D8F80000AE
:105A600007214FF4407300F00800349001202F9379
:105A7000CDE932512FA9CDE930702D48FDF790F9CD
:105A8000294F2D22264978376031384687E826008D
:105A9000C7E903567D61C7E906593D627D62FCF79F
:105AA00039F908B1FBF79BF9DFF87C802E23E76713
:105AB00008F1F008BC634046194A7832C0E9035641
:105AC000C8F81450C8F81850C8F81C50C8F820502E
:105AD00088E80C04C8F82450FCF71CF908B1FBF75F
